:020000040800F2
:1000000040050020B5400008F12A0008F32A000846
:1000100000000000000000000000000000000000E0
:10002000000000000000000000000000F52A0008A9
:100030000000000000000000F72A0008F92A00086C
:1000400057160008000000002B1700082F1C00089E
:100050004B1D0008AB250008A92B0008EF2A00085B
:1000600000000000B32B0008572E0008CB3C00080E
:10007000E33E00086B4000087740000800000000E5
:10008000A3400008D9400008DB400008DD4000081C
:10009000DF400008E1400008E3400008E5400008B8
:1000A000E7400008E9400008EB400008252B000865
:1000B0002F2B0008ED40000800000000EF40000872
:1000C000F1B5A4B00E0014001D004A487844FF307A
:1000D000253003C822AA03C2049600200D9001E037
:1000E0000098241800206946C88022AB0022D24321
:1000F000210001A8801C01F03CF90090012805DADC
:100100002078411E8941C943C90F00916846C088C3
:100110002528009F00D17F1E012F0EDB260031789D
:100120000498249A90470490002800D107E10D9884
:10013000401C0D90761C7F1EF1D16846C088252892
:1001400007D100200790089009900A900B900C901E
:1001500008E06846C0880028C2D10D98F1E001008F
:1001600001200843641C21782029F8D023290ED0CF
:100170002B2904D02D2907D030290BD00DE0010008
:100180000220084380B2EDE701000420F9E70100F6
:100190000820F6E701001020F3E72A290FD129688B
:1001A00029600A68091D29600F92002A05D551426D
:1001B0000F9101000420084380B2641C12E000216A
:1001C0000F910AE00F9A7F4B9A4205D093009A183C
:1001D0005200511830390F91641C21780A00303ACE
:1001E0000A2AEFD321782E2906D00021C9430E9187
:1001F00021E000BFE03D0000641C21782A2907D1DE
:10020000296829600A68091D29600E92641C12E0A1
:1002100000210E910AE00E9A6A4B9A4205D0930093
:100220009A185200511830390E91641C21780A0036
:10023000303A0A2AEFD302A9088726783100044809
:1002400078440C3001F0A3F8002803D0641C02E0CD
:100250008C3D0000002602A83A214654405C6828E4
:1002600004D12178682901D1622005E06C2807D1EA
:1002700020786C2804D1712002A93A228854641C89
:1002800012A806902678641C300025382AD01C3825
:1002900000D1E0E0001F022800D8DCE0133800D1D4
:1002A000FFE0093800D1D6E0801E00D168E1401E91
:1002B00000D140E1401E022800D8CCE0001F00D150
:1002C00039E1401F00D197E0401E00D1E9E0401E17
:1002D00039D0C01E0BD0801E00D1E2E0C01E00D17C
:1002E000DFE070E1252012A90870012075E102A865
:1002F0003A21405C6C282868286016D00668001DEA
:10030000286005960E9F002F03D5300001F049F8B4
:1003100009E03A000021300001F04BF8002801D03C
:10032000801B00E03800089058E10268001D28603A
:1003300002A9249800F032FA002800D44EE10020EF
:10034000C04325B0F0BD286828600268001D286001
:100350000020C0430021104002AA03C212A8059049
:10036000069B3C2602A803C8002904D1002802D11C
:100370000E9A002A14D0761E00960207120F303211
:10038000D2B23A2A00DB27329A5500090A071043F5
:10039000090901D1002803D0059A9F19BA42EAD36E
:1003A0003C20801B0890991905910E9988420DDA1E
:1003B000081A0A9002A8008F0349014002A8018789
:1003C0000CE100BFFFFFFF7FEFFF0000002900D41A
:1003D00004E102A93822895C14220A40102A00D0C4
:1003E000FCE00F99079A891A0A9A891A0E1A012EA7
:1003F00000DAF3E00A96F1E002A83A21405C6228B4
:1004000019D0682806D06A280CD06C281BD0712817
:1004100008D018E0286828600168001D28600D9841
:100420000880DBE0286828600268001D28600D98BD
:10043000C11703C2D2E0286828600168001D286047
:100440000D980870CAE0286828600168001D2860BF
:100450000D980860C2E02A68D21D072082432A60F6
:1004600003CA2A6002AA03C2002902D507982D21D7
:100470000AE002A8008F810702D507982B2103E02C
:10048000C00705D50798202112AA1154401C0790D7
:1004900012A8079940180590310002A800F0A8FBA7
:1004A0009CE002A83A21405C6C280BD0712801D056
:1004B0006A2807D12A68D21D072082432A6003CA0E
:1004C0002A6005E0296829600868091D2960002163
:1004D00002AA03C202A83A21405C682803D102A8FC
:1004E00003C880B20BE0622803D102A803C8C0B2DF
:1004F00005E0742801D07A2804D102A803C800219D
:1005000002AA03C202A83821405C00072FD502A826
:1005100003C8002901D1002829D0202030437828A1
:1005200025D10798302112AA1154401C411C079173
:1005300012A90E541BE0290002A83A22805C00F0A8
:10054000F8F802AA03C202A8002902DA07982D21AE
:1005500009E0008F810702D507982B2103E0C0072F
:1005600005D50798202112AA1154401C079012A803
:10057000079940180590310002A800F0A1FA2DE07B
:1005800002A83A21405C6C2809D001200790286815
:1005900028600168001D286012A801701EE028680C
:1005A00028600168001D28606846018000206946B7
:1005B0004880C0430E906A4602A9249800F0EEF8E5
:1005C00000280BD5BBE6252012A908700120079052
:1005D000300003D012A84670022007900F980799A8
:1005E000401A0A99401A0899401A0B99401A099919
:1005F000401A0C99401A009002A83821405C40072C
:1006000011D4202069460871009801280BDB009E58
:10061000012301AA02A9249800F093FE002800D02B
:100620008DE6761EF4D1079F12AE002F0DD03178E3
:100630000498249A90470490002800D17FE60D98F2
:10064000401C0D90761C7F1EF1D130206946087148
:100650000A9E012E0ADB012301AA02A9249800F0B8
:1006600070FE002800D06AE6761EF4D1059E089F31
:10067000002F0DD031780498249A904704900028D8
:1006800000D15CE60D98401C0D90761C7F1EF1D1C8
:100690003020694608710B9E012E0ADB012301AA56
:1006A00002A9249800F04DFE002800D047E6761EEF
:1006B000F4D1059808994618099F002F0DD031787C
:1006C0000498249A90470490002800D137E60D98AA
:1006D000401C0D90761C7F1EF1D1302069460871B8
:1006E0000C9E012E0ADB012301AA02A9249800F026
:1006F00028FE002800D022E6761EF4D102A8382178
:10070000405C400700D4EDE4202069460871009861
:10071000012800DAE6E4009E012301AA02A9249838
:1007200000F00FFE002800D009E6761E00D1D9E4C3
:10073000F2E70A00622822D0682819D06A2808D077
:100740006C2823D0712804D074281FD07A2808D0B0
:100750001CE01368DB1D07208343136003CB136089
:100760007047116811600868091D11600021704709
:10077000116811600868091D116000B20BE0116872
:1007800011600868091D116040B204E01168116031
:100790000868091D1160C11770470000F4B59AB0D0
:1007A00007000C00206B002800D50E48039000F0D5
:1007B0000CFE616B0818069009487844223003C883
:1007C00007AA03C23820205C400702D406984128BB
:1007D0000AD209A80290402006900020059012E05D
:1007E00004380000FFFFFF7F00F0F4FD02900028B6
:1007F000F3D10020C04361E11A98801C1A9003983D
:100800000199401A03900398012800DAD0E007AA62
:100810001A98018800A8401C00F038FE01900028BA
:1008200000D5E2E01A980088002804D10198401E03
:10083000019000D5D9E003980199884200DAB7E029
:1008400060690699019A8218914200D39FE00021C5
:1008500061634142206A081AA169401A616A401A1C
:10086000E169401AA16A401A04903820205C4007D0
:1008700011D4202069460870049801280BDB049DE0
:1008800001236A462100380000F05BFD002800D0FB
:10089000ABE06D1EF4D16669029D002E0CD0297864
:1008A000A068B847A060002800D19EE0E06A401C24
:1008B000E0626D1C761EF2D1302069460870256A10
:1008C000012D0ADB01236A462100380000F039FDC2
:1008D000002800D089E06D1EF4D1E568A669002EDD
:1008E0000BD02978A068B847A06000287DD0E06AC6
:1008F000401CE0626D1C761EF3D130206946087002
:10090000656A012D09DB01236A462100380000F0E9
:1009100018FD002869D16D1EF5D1E068A169451860
:10092000E669002E0BD02978A068B847A06000289F
:100930005BD0E06A401CE0626D1C761EF3D1302073
:1009400069460870A56A012D09DB01236A4621006A
:10095000380000F0F6FC002847D16D1EF5D1382094
:10096000205C400710D520206946087004980128B3
:100970000ADB049D01236A462100380000F0E1FCF7
:10098000002832D16D1EF5D1002005906061019ADA
:1009900000A9491C02986369C01800F083FD6069D2
:1009A0000199401860611A980088002800D023E758
:1009B000059800287BD1606B6169401A216A401A52
:1009C000A169401A616A401AE169401AA16A461A8F
:1009D0003820205C400711D4012E0FDB3500202188
:1009E000A068B847A060002803D10020C04305904C
:1009F0005DE0E06A401CE0626D1EF0D16369029A1E
:100A00002100380000F09DFC0028EED1256A012D60
:100A10000ADB3021A068B847A0600028E5D0E06A72
:100A2000401CE0626D1EF4D1A369E2682100380029
:100A300000F087FC0028D8D1656A012D0ADB30213F
:100A4000A068B847A0600028CFD0E06A401CE062F0
:100A50006D1EF4D1E369E068A169421821003800F5
:100A600000F06FFC0028C0D1A56A012D0ADB3021FF
:100A7000A068B847A0600028B7D0E06A401CE062D8
:100A80006D1EF4D13820205C40070DD5012E0BDB04
:100A900035002021A068B847A0600028A5D0E06AF2
:100AA000401CE0626D1EF4D100206061606302981A
:100AB00009A9884201D000F023FD05981BB0F0BDC4
:100AC000F3B583B0006900906846027C6F2A01D1BB
:100AD000082406E020211143782901D00A2400E0EF
:100AE00010243C25039803C806000F00642A01D097
:100AF000692A07D1002905DA00200021801BB941AD
:100B000006000F00002F10D1002E0ED10398006BAD
:100B100000280AD1082C3AD103983821405C0007FC
:100B200035D53B253020009930E06D1E0195300011
:100B300039002200E31700F027FD3032D2B23A2A02
:100B400003DB6846007C513812180098425530008B
:100B500039002200E31700F017FD06000F0001D155
:100B6000002E05D00398C068009949198842DCD34B
:100B7000082C0CD103983821405C000707D5009859
:100B8000405D302803D06D1E3020009948553C2030
:100B9000401B0399886100994919039AD160039910
:100BA000096B884209DA081A039908620398008FD2
:100BB0000E4901400398018715E0002913D50399D8
:100BC0003822895C14220A40102A0CD10399496BFF
:100BD000039A5269891A039A126A891A0D1A012D09
:100BE00001DB0398056205B0F0BD0000EFFF0000D7
:100BF000F3B591B006AA03C802AB03C312A80078EC
:100C000020210143009161290BD01198006B00282D
:100C100001D5062003E004D1672902D101201199F2
:100C20000863119840684100490DA64B994225D1AF
:100C3000000310D11198006800280CD103201199ED
:100C4000886112A8007861381A283AD31F4878447E
:100C50007A3000900BE003201199886112A8007887
:100C600061381A2829D31A48784464300090032246
:100C700000991198C06800F015FCE9E1012919DB21
:100C8000914B034091481843119B586090480D1AAE
:100C90000026F6430098612827D11198C0683021BA
:100CA0000170811C119BD96012A90978612915D1A5
:100CB000782114E000260025ECE70648784414303B
:100CC000D4E7054878441030C3E700BF2C33000058
:100CD00020330000183300001C33000058214170FD
:100CE00011984069801C11994861002E03D100249D
:100CF00068468680A3E10098612800D09EE01198A4
:100D0000046B002C01D5212400E0641C24B2601C7B
:100D100000901198C0C802A803C80022002300F068
:100D200068FC02D280200006474002A8C0C0281FED
:100D30006946888000260E7606A8471C0098012880
:100D400035DB02A803C8002280235B0300F06AFCA5
:100D50002DD81C2102A800F07FFC02A803C800F0D7
:100D6000BBFC05000098C01F009001280ADB28008A
:100D700000F0DCFC02000B0002A803C800F04DFDEF
:100D800002AA03C2F81D072104E0401E2A07120F21
:100D900002702D11012D01DB491EF6D5491E02D42A
:100DA000401E0670FAE7C71D00980128C9DA06A898
:100DB000401C391A06A8421CA14200DA0C0024B2D9
:100DC000200032D4884205DA06A909184978082992
:100DD00000DB0F2606A9091801E0641E491E401E0B
:100DE0000B78B342F9D00F2E04D106A909184B781D
:100DF0005B1C4B70002806D506AA641C019800B243
:100E0000001D6946888024B2601E0ED411180B782C
:100E10003033DBB23A2B03DB12AD2D783A3D5B1950
:100E20000B70401E491E0028F1D51198006B002858
:100E300000D404E1601E1199086300E102A803C810
:100E40000022002300F0D5FB06D202A803C88022AE
:100E50001206514002AA03C22DB27E4868437E4961
:100E600000F068FD694688800720019909B2421A9E
:100E700000207A49012A20DB049202AA30CA002607
:100E80000F000498C00707D532003B00200029005E
:100E900000F0AAFD04000D000498401004903000FA
:100EA000390032003B0000F09FFD06000F0004985F
:100EB0000028E6D102A830C029E054420026684F3D
:100EC00019E000BFFF070000FFFF0F800000E03FB8
:100ED000FE030000E00707D504A803C832003B006A
:100EE00000F082FD06000F00641004A803C804AAE5
:100EF0000CCA00F079FD04AA03C2002CEAD102A8B2
:100F000003C832003B0000F031FE02AA03C2009881
:100F1000662803D1019800B20A3000E0062011993A
:100F2000096B08180490142801DB1320049030206A
:100F30006946087606A8441C049801283BDB02A8F1
:100F400003C800F0DBFB06000834042530000A214A
:100F500000F0F3FC0F0030000A2100F0EEFC060068
:100F60003037601E077030000A2100F0E6FC0F00E9
:100F700030000A2100F0E1FC0600A41E3037277083
:100F80006D1EE3D108340498083804900128D3DB9F
:100F900002A803C800F0B2FB00F0D2FB02000B0075
:100FA00002A803C800F039FC00222E4B00F01CFD03
:100FB00002AA03C2C3E706A8401C201A06A94A1CBD
:100FC0006B4605E0401E019909B2491E9980521CEA
:100FD00011783029F6D00099662903D1019909B218
:100FE000491C04E0652901D1012100E00021119B89
:100FF0001B6B5C1824B2A04200DA040024B221006A
:101000001DD4814204DA505C352801DB392000E030
:101010003020531800E0641E5B1E491E1D78854277
:10102000F9D0392802D1505C401C5054002906D513
:10103000521E641C019800B2401C694688800198C9
:1010400000B2009023B212A80178119800F00CF8B9
:1010500013B0F0BD97750000A08601000000244089
:101060000000F03F84D79741F3B587B015001C000E
:1010700000F0F7FD0090406A007869460871079813
:10108000076B012C01DA0124ADA508A80178202006
:1010900008430E9E662801D1761C17E0672800D011
:1010A0009EE00321C9438E4200DA9DE0BE4200DB90
:1010B0009AE0761C07983821405C000702D4BC42B5
:1010C00000DA270036B2BF1B00D5002707988069D9
:1010D0000799C9680918009136B2012E2EDA401C12
:1010E0003021009A1170012F04DA07993822895CA7
:1010F000090705D569460979079AD2681154401C39
:10110000079988617042874200DA7E4236B27042A7
:1011100007994862BF19A74200DA3C0024B2079839
:10112000C461220029000798C068079B9B69C0180A
:1011300000F0B8F9381B07998862E2E0B44220DA7F
:1011400022002900009800F0ADF907998969091972
:10115000079A9161301B079A5062012F04DA0798B1
:101160003822805C000709D568460079079AD26862
:1011700050540798C069401C0799C8610798876256
:10118000BFE032002900009800F08CF907988069D0
:101190008019A41B012F04DA07993822895C0907FA
:1011A00005D569460979079AD2681154401C0799F8
:1011B000886124B2A74200DA3C0024B22200A919B7
:1011C0000798C068079B9B69C01800F06BF90798E7
:1011D0008069001907998861381B0799486290E077
:1011E000612914D1702015E0BC4205DA0799382234
:1011F000895C090700D427007F1E00D5002708A8B6
:101200000078672801D1652004E0452002E04129EB
:1012100002D1502008A9087007988069411C079ADC
:1012200091612978079AD2681154681C0090012FA7
:1012300004DA07983821405C000720D507988169B7
:10124000481C079A90616A461279079BDB685A54DA
:10125000012F14DB641E24B2A74200DA3C0024B242
:1012600022000099079BDB68181800F01BF907980B
:101270008069001907998861381B079948620798A7
:10128000C06807998969411808A80078087030007B
:1012900003D42B2048708D1C03E02D224A708D1C36
:1012A0004642002404AF08E00A2202A800F0F4FC41
:1012B00003983870029E641C7F1C31B20129F3DA56
:1012C000022C08DA08A8007820210143652902D100
:1012D000302028706D1C002C09D1302028706D1C26
:1012E00007E0641E04A8005D303028706D1C012CDE
:1012F000F7DA0798C068079989694018281A07998A
:10130000C86107983821405C14210140102914D18C
:10131000079840690799896940180799496A4018F0
:101320000799C96940180799896A40180799496B54
:10133000884202DA081A0799086209B0F0BD000075
:101340003000F1B50E0014000027002B0FD01D0057
:101350002178B068009A9047B060002806D0F06A03
:10136000401CF062641C6D1E01D0F1E7FF433800A1
:10137000F2BDF8B504000F0015001E0000F09CFC43
:1013800033002A003900200000F0AAFCF2BDC9B2E7
:1013900000E0401C02788A4202D0002AF9D10020E5
:1013A0007047010000E0491C0A78002AFBD1081AA6
:1013B0007047C9B201E0401C521E002A03D00378D6
:1013C0008B42F8D170470020704780B500F074FC64
:1013D000012002BD70B505002C000F3407208443A6
:1013E00000BF00BFA54233D2082C04D2082402E07B
:1013F000083000F085F82448026811000CD1011D66
:101400000A68002A20D01368A34212D2111DF7E700
:101410001D68A5420DD2191D0B68002BF8D112686A
:10142000011D00E0191D0B6893420DD01D68A542F7
:10143000F8D300290CD00D682A681300083BA3429A
:101440000AD26A680A600FE000F068FC0028CFD179
:1014500000BF00BF002070BD2B190B606E685E607E
:10146000121B0B681A602C600968002904D04A68B6
:10147000002A01D0091D00E00021016000BF00BF6B
:101480002800083070BD00008009002070B50400FD
:101490000D00160000F010FC32002900200000F0C2
:1014A00015FC70BD124207D08B0706D00B78491C83
:1014B0000370401C521EF7D87047830706D00B7884
:1014C000491C0370401C521EF9D1704770B4103A89
:1014D00003D378C9103A78C0FBD2530701D318C997
:1014E00018C001D508C908C0D20704D30B880380EF
:1014F000891C801C002A01D50B78037070BC7047D2
:10150000002800D1704738B5083804002068082842
:1015100036D3400734D100BF00BF1A4841680029C4
:1015200001D08C4203D26160446019E019004B681D
:10153000002B01D0A342F9D30B68CD18AC421DD3C8
:10154000A54204D122689A180A600C0008E04A6893
:10155000002A03D02368E3189A420FD362604C60DC
:10156000616800290AD02268A3188B4206D10023A3
:1015700003600868101820604868606000BF00BF02
:1015800031BD000080090020124224D0994228D9A0
:1015900070B500251B4202D00C00002109E0002498
:1015A000012649186441944200D3A41A7641F8D325
:1015B0003100012601E0764109D2001864416D41F5
:1015C000A41A9D41F7D2A4185D41B619F5D3300095
:1015D00022002B0070BD1B42D8D108B500F0B4FB2F
:1015E00008BD01D19042D3D202000B00002100209F
:1015F000704730B4012464054D00EC420BD85D0007
:10160000EC4208D80C001C4364000443144304D289
:10161000994200D1904230BC7047FCD08B42FAD145
:101620008242F8E730B4012464054D00EC420BD847
:101630005D00EC4208D80C001C43640004431443D2
:1016400004D28B4200D1824230BC7047FCD0994218
:10165000FAD19042F8E7FEE710B40200506840006B
:10166000400D194B984207D15068000302D1106811
:10167000002811D0022025E0002823D001290DDB0D
:101680001B1A99420AD35068002802D500200F493E
:1016900001E000200E4903C2012013E043428B42C7
:1016A00009DA53680B4C1C400818000520435060B1
:1016B0000020C04306E050688021090608405060C1
:1016C0000020106010BC7047FF0700000000F0FF12
:1016D0000000F07FFFFF0F80F4464A1805D200F0AB
:1016E0000FF801D580174008604700F009F8012184
:1016F000C907884200D90800404260474A1812D200
:10170000400DC90208430121C9070843520D402179
:101710000901521A521C06D452421F3201D4D04041
:101720007047C017704700207047FEE7010009D5D9
:10173000F446404200F006F80122D2071143604708
:10174000010000BF42221201D21E004207D002D483
:10175000521E0018FCD5C10A4005120589187047B1
:101760008B4200D1824205D98446100062468C46E5
:1017700019006346DF184C18640D7F0D3AD0661CC3
:10178000760537D0E61B352E34DCDB022B43DB0A33
:101790000C0DC9022943C912202E0DDB1700203E73
:1017A00006D01F00F741F3405F400026012A774131
:1017B000C01871410DD217E01700F741F2405740B1
:1017C000F3415A40B340F3405A4000268018594133
:1017D0000AD3A21C52050FD0C207012F7241170075
:1017E0004008CB0718434908641C24054208AF4150
:1017F00070416141F0BC7047641C21050020F9E78D
:101800006B4010E06B40ABE7F742F3D1E943F1E7FF
:101810002442EFD100200021ECE7F0B40125ED07D0
:101820000F005F40EED40C00871A9C4105D2C01B0C
:10183000A141D219634169406B40AE0ADF184C18D0
:10184000F442E1D2640D7F0DE2D0E61B362ED1DCEE
:10185000DB022B43DB0AA4460C0DC9022943C90A4B
:10186000012E28DC04D1D6075208DF073A435B0873
:10187000EF0A76429041994114D039423BD1B619D2
:1018800040414941761C394204D1761C0018494137
:101890003942FAD0B9436746B74208D9A41B240598
:1018A0002143A7E70042EAD13642E8D1A2E7E40AA1
:1018B000E10700209EE7202E0BDD203E1F00F340B5
:1018C000F7415F40012A002257417E4298419141F1
:1018D0000BE01700F741F2405740F3415A40B34044
:1018E000F3405A407E42904199410A0303D2641E5C
:1018F000B619404149410027641E24054208AE4103
:1019000078416141F0BC7047F446002804D4494254
:1019100000F013F8404260474042002905D45FD0F0
:1019200000F00BF8404249426047494200F005F898
:101930004942604703460B43E6D40022030A8B4228
:101940000BD203098B4219D243088B422ED2411A83
:1019500000D20146524110467047FF2209023FD093
:1019600012068B4205D3121209028B4201D31212C6
:10197000090203098B4219D300E0090AC3098B420B
:1019800001D3CB01C01A524183098B4201D38B0191
:10199000C01A524143098B4201D34B01C01A524134
:1019A00003098B4201D30B01C01A5241C3088B4279
:1019B00001D3CB00C01A524183088B4201D38B0064
:1019C000C01A524143088B4201D34B00C01A524106
:1019D000884200D3401A5241CFD201461046704788
:1019E00008B500F0B3F908BDF0B50E005E40012562
:1019F000ED072E40B446AE0ADF184C18F44208D268
:101A0000F7420ED2640D01D07F0D12D10020614645
:101A1000F0BD05D1F74201D87F0D05D10020C143AB
:101A2000F0BDFBD1640DF9D00020C1434905490840
:101A30008FE0E419C902DB0229432B43DB0A460D80
:101A4000C00231438E4630B487B295B27D432E0C2E
:101A5000ADB2140C7C43A419260C240425439CB27B
:101A60007C43A419190C7943270CC919A4B20F049B
:101A70003C43090C000C97B247432E0CBE1935436A
:101A8000ADB2170C4743360CBF19A6B2BF193E04BE
:101A90003543240C3E0C36199FB24743BF19BCB2E4
:101AA0003E0C89191F0C47437F183E043443390C00
:101AB000704680B297B247432E0CBE193543ADB283
:101AC000170C4743360CBF19A6B2BF193E04354365
:101AD000240C3E0C36199FB24743BF19BCB23E0CD2
:101AE00089191F0C47437F183E043443390C77464D
:101AF0003F0C90B278432E0C80190604ADB22E43F1
:101B0000050CA0B22D18120C7A435019020C80B2A9
:101B1000240CA4189AB27A43121914042043120C0C
:101B200089181B0C7B43C91830BCEF0A394203D11A
:101B3000B61940414941641E6F12BF0DE41B0BDB17
:101B4000FF19BC4211DA240500274208AE41784152
:101B5000614166463143F0BD641C05D1401C6141C2
:101B6000CF0201D34908F4E750E75DE7F0B40E0077
:101B70005E400125ED072E40B446AE0ADF184C1832
:101B8000F4423BD2F74241D2640D43D07F0D38D0AE
:101B9000E41BC902DB0229432B43CF0ADB0A060000
:101BA000B61A9F4104D2641EB6197F41B6185F4130
:101BB0006812800D24180018844222DAE80C0021F3
:101BC000B6197F41B61A9F4102D2B6185F413F1C39
:101BD00040414941F4D3241C21DD2405B6197F413D
:101BE000B61A9F4105D33743C60737430026012F56
:101BF0007041614166463143F0BC7047FCD1F74209
:101C000005D20020C14349054908F3E704D000206C
:101C1000C143F1E77F0DFAD000206146ECE7244292
:101C2000FAD1401C61410F03F6D30020E2E7FEE742
:101C300080B5124800F08BF811A10160416081600D
:101C4000C1600161416181610EA242628162C16233
:101C5000016341630CA282630DA2C263016441640B
:101C600001BD10B5054800F072F804002068002896
:101C700001D1FFF7DDFF200010BD0000440000206F
:101C8000000000002E00000066616C73650000001B
:101C900074727565000000007CB504000E0015002C
:101CA00030002900FFF746FE00904543701B01906D
:101CB000684603C803C473BD80B5034800F047F805
:101CC000806902BD00000000D4000020002804D17B
:101CD0000EA003C803C200207047017001207047A6
:101CE000002904D10BA003C803C300207047002AB9
:101CF00002D10120C0437047002801D00A78028039
:101D00000978481E8041C043C00F704700000000A2
:101D10000000000000000000000000000749086803
:101D2000002801D000207047054807229043086032
:101D300004499143091A0160704700BF8C090020D3
:101D400047050020400700207047FEE770477047B6
:101D500038B5040014D0250068356878002803D110
:101D60002870200000F0BAFB242068702068016809
:101D7000012291430160200000F058F9012801D1AF
:101D8000012032BD606A002802D0200000F0E0F996
:101D9000206841683A4A0A40426020688168082207
:101DA00091438160FFE72068016801220A430260D5
:101DB000200000F033FA32BDFCB583B006000C0001
:101DC00035005035687E202856D1002C0BD0002AD3
:101DD00009D0B06880214901884206D130690028C5
:101DE00003D1E00701D5012047E0287E012843D038
:101DF000012028760027EF612120687600F0A8FBFB
:101E0000019068468089288068468089688005E05E
:101E10002088C005C00D31680885A41C688800288A
:101E200019D06888401E688004980090019B0022A9
:101E30008021300000F0FBF9002816D1B068802125
:101E40004901884202D130690028E1D02078316808
:101E50000885641CE2E704980090019B0022402161
:101E6000300000F0E4F9002801D0032005E0202034
:101E700068762F76002000E0022005B0F0BD00005B
:101E8000FFF7FFFF70B5030058339C7C202C41D135
:101E900000290BD0140009D0856880267601B54250
:101EA00006D10469002C03D1CC0701D5012070BDF7
:101EB0001C7C012C2ED001241C7441651A805A8090
:101EC000FF21B54204D10269002A11D112490FE065
:101ED0007F22002D03D10569002D06D108E02107DE
:101EE0008D4206D10169002901D19A8001E03F218C
:101EF00099800021596122229A74197401688A68B4
:101F000014438C6000680168902252000A4302600A
:101F1000002070BD022070BDFF01000070B50400FC
:101F20002368D869196805072D0F07D1820605D5E2
:101F30008A0603D5200000F028FA70BD9A68002DAB
:101F400063D001252A4203D1902676000E405CD052
:101F5000C60705D5CE0503D51D62E36E1D43E566B4
:101F600004230225860706D5D60704D526683562E0
:101F7000E66E1E43E666460706D5D60704D52668F4
:101F80003362E36E1D43E5660825030708D58B061B
:101F900001D4D20704D522681562E26E2A43E266B4
:101FA000E26E002A40D0800604D5880602D52000C3
:101FB00000F0EBF94026E06E054003D12068806810
:101FC00030401CD0200000F063F9206881680E408A
:101FD00011D08168402291438160606E00280AD050
:101FE0005A494163606E00F0B9FA00281CD0606E57
:101FF000416B884770BD200000F0D6FA70BD20000C
:1020000000F0D2FA0020E06670BD020605D50A068F
:1020100003D5200000F07AF970BD400604D54806CB
:1020200002D5200000F0A4F970BD0000F8B504004E
:10203000102200200025266831689D4F0F40A168BE
:10204000394327690F4361693943E7690F433760B3
:10205000776898493940E7680F437760B7689649D1
:102060003940A7690F43216A3943B16093498E42D1
:102070000FD1934909688907890F13D0022906D027
:1020800003D303290FD102220DE004220BE0082222
:1020900009E08C498E4205D08B498E4202D08B4993
:1020A0008E4200D1002280231B02E7699F4225D186
:1020B000002A06D0022A07D0042A09D0082A0DD007
:1020C00013E000F0E5FC05E061684808804A08E09C
:1020D00000F0B8FC616840004A0802E06168480806
:1020E0005A008018FFF729FC00E0012579490140DA
:1020F0000004400C4007400F084318E0002A06D0B7
:10210000022A07D0042A0AD0082A13D01AE000F0C5
:10211000BFFC06E0616848086F4A80180DE000F0D7
:1021200091FC61684A088018FFF707FC80B22168BB
:10213000C86008E061684808C018FFF7FEFB80B27D
:10214000F06000E001252800F2BD0000F92200083F
:102150002421415CC90706D501684A685F4B1340DA
:10216000826A1A434A602421415C890706D50168C6
:102170004A685B4B1340C26A1A434A602421415C9F
:10218000490706D501684A68564B1340026B1A434B
:102190004A602421415C090706D501684A68524B10
:1021A0001340426B1A434A602421415CC90606D59C
:1021B00001688A684D4B1340826B1A438A60242160
:1021C000415C890606D501688A68134B1340C26BCF
:1021D0001A438A602421415C490611D501684A6886
:1021E000434B1340026C1A434A60026C80235B032A
:1021F0009A4205D14A683F4B1340426C1A434A60E9
:102200002421415C090606D501684A687B4B1340CE
:10221000806C184348607047FFDFFFFF6830002183
:102220004160202242708270017000207047FEB52C
:1022300004000F000025089E2068C0693840B8429D
:1022400001D1012000E000206946097988421DD1B2
:102250000020C0438642EFD0002E05D000F078F970
:102260000299401A8642E7D220680168644A0A400F
:1022700002602068816801229143816020006830FB
:1022800020214170817005700320FEBD0020FEBD3D
:1022900001680A685B4B13400B6001688A68012380
:1022A0009A438A6020216A2281547047000000000E
:1022B000F369FFEFFFCFFFFFFFF4FFFF003801409E
:1022C000301002400044004000480040004C0040F4
:1022D0000024F400F0FF000000127A00FFFFFDFF71
:1022E000FFFFFEFFFFFFFBFFFF7FFFFFFFEFFFFF93
:1022F000FFFFEFFFFFFF9FFF80B5406A01005231F3
:1023000000220A810A8000F04FF901BD010052311C
:10231000CA7D212A2AD10A88002A0AD101680A68BE
:1023200080239A430A600068016840220A430260E1
:102330001AE0826880235B019A420CD10269002A6C
:1023400009D1C26C1288D205D20D03681A85C26CFD
:10235000921CC26405E0C26C531CC364127800680E
:1023600002850888401E08800020704702207047C0
:1023700080B501680A6840239A430A6020216922D7
:10238000815400F0B3FB002002BD38B501005A3182
:102390004A8803680C7C222C29D19B8C8468802578
:1023A0006D01AC4209D10469002C06D11A40436D7D
:1023B0001A80426D921C426504E0446D651C4565BF
:1023C0001A4022700A88521E0A8012040DD1026837
:1023D00013680C4C1C401460026893680124A343EA
:1023E000936020220A7400F0A7FB002032BD986998
:1023F000082101439961022032BD0000FFFFF7FF71
:102400005FFEFFFFDFFEFFFF80B501204A490A683B
:1024100002430A600A68104000900098802040053E
:102420004A6802434A6049680840009000980022C8
:1024300000210420C04300F0D7FB0022002101202E
:10244000C04300F0D1FB002200210020C04300F077
:10245000CBFB01BD81B000683749384A904205D1B5
:10246000C80C0A6802430A60096807E0344A9042CF
:1024700007D102204A6802434A6049680840009038
:10248000009801B07047F0B585B001689020C00594
:10249000032400260225294A914207D1C10C00914C
:1024A0000195029603940495694613E0244A9142EB
:1024B00012D1C0210091019502960394012704973F
:1024C000694600F0C9FB00940195029603940497B5
:1024D00069461C4800F0C0FB05B0F0BDF0B587B000
:1024E00006689020C0050121032200230224124D1A
:1024F000154FBE4209D18E032F6837432F602D68D8
:102500002E400096009D55020BE0104FBE4210D1A8
:102510004E046F6837436F606D682E400096009DD3
:102520000C250195029403930492059101A900F0F2
:1025300093FB07B0F0BD000018100240002C0140D2
:1025400000040040000400480038014000440040FE
:1025500001480068704700BF5C090020F8B5002101
:1025600000240200343201232125455D022D03D0D1
:1025700004205060012415E005682E680E27BE4334
:102580002E6005682E689E432E60D5680126AE40F9
:1025900095686E60212543552023C15411680A00B7
:1025A00000D088472000F2BD7047FEE7F0B583B049
:1025B0000400AE4D2078C0074CD58027BF02686864
:1025C0000C21014004290BD0780869680C220A40CC
:1025D000082A0DD16968C02252020A40824207D1FE
:1025E0002868074036D06068002833D10120FEBD3E
:1025F0006368012B09D09E499E4A002B09D0052B08
:1026000007D1296882000A432A60296808432860A4
:1026100005E0286802402A60286801402960606857
:1026200000280BD0FFF794FF06002868384011D12E
:10263000FFF78EFF801B6528F7D364E1FFF788FF63
:1026400006002868384005D0FFF782FF801B652808
:10265000F7D358E10227206838401CD068680C2165
:1026600001400BD068680C210140082929D1686815
:10267000C02149020140B803814222D12868384074
:1026800002D0E0680128B1D12868F8218843216987
:10269000C900014329602078000743D5E06900287C
:1026A000686A30D0012101436962FFF751FF0600DB
:1026B000686A384036D1FFF74BFF801B0328F7D3F9
:1026C00021E1E068002828680ED00121014329603B
:1026D000FFF73EFF060028683840D5D1FFF738FFE6
:1026E000801B0328F7D30EE1012188432860FFF700
:1026F0002FFF060028683840CDD0FFF729FF801B48
:102700000328F7D3FFE0012188436862FFF720FF29
:102710000600686A384005D0FFF71AFF801B0328BF
:10272000F7D3F0E02078400762D500200090F8064B
:10273000E969014008D1E9690143E961E9690840B3
:10274000019001980120009071480068C00512D4E2
:102750006F480068A90D01436D480160FFF7F8FE5E
:1027600006006B480068C00505D4FFF7F1FE801B2A
:102770006528F6D3C7E0A068012809D0002801D158
:10278000286A0AE00528286A07D104210143296242
:10279000286A01210143296206E001218843286259
:1027A000286A042188432862A06800280CD0FFF71B
:1027B000CFFE0600286A384013D1FFF7C9FE801B00
:1027C0009E498842F6D39EE0FFF7C2FE0600286AC3
:1027D000384006D0FFF7BCFE801B98498842F6D3EC
:1027E00091E00098002803D0E86995490140E9612B
:1027F0002078C0061DD5606901283DD1686B042191
:1028000001436963686B012101436963FFF7A0FE1F
:102810000600686B384005D1FFF79AFE801B03283D
:10282000F7D370E0686BF8218843A169C9000143C0
:102830006963206A002868D069680C220A40082A67
:1028400000D1D3E63F069749022828684ED10140BF
:102850002960FFF77DFE06002868384028D0FFF782
:1028600077FE801B0328F7D34DE000BF0010024025
:10287000FFFFFBFFFFFFFEFF0421C9438842686B97
:1028800003D1042188436863CCE7042101436963D1
:10289000686B012188436863FFF75AFE0600686B86
:1028A0003840C6D0FFF754FE801B0328F7D32AE038
:1028B000E86A0F218843E16A0143E96268687A495E
:1028C0000140A06A0843616A014369602868790889
:1028D00001432960FFF73CFE06002868384014D108
:1028E000FFF736FE801B0328F7D30CE00140296078
:1028F000FFF72EFE06002868384006D0FFF728FEB6
:10290000801B0328F7D30320FEBD0020FEBD00007E
:1029100000700040F2B582B004000127FF4301259A
:1029200062480068284088420AD2604800683840FF
:1029300001435E480160006828400299884262D1E4
:102940005B4E02202168014005D07168F02291435E
:10295000A2680A4372602168294042D06168012957
:1029600002D13068800303E0022903D1306880017E
:1029700003D448E03268104045D070680322904389
:1029800001437160FFF7E4FD0090606801280CD1FD
:1029900070680C210140042923D0FFF7D9FD00996C
:1029A000401A26498842F3D319E002280CD17068F6
:1029B0000C210140082914D0FFF7CAFD0099401AE4
:1029C0001E498842F3D30AE070680C21014008D008
:1029D000FFF7BEFD0099401A18498842F4D303203E
:1029E000FEBD029831490968294088420DD22F481E
:1029F00000680740029838432C4908600868054081
:102A00000298854201D00120FEBD2078400705D5FF
:102A1000706828490140E0680843706000F012F8CF
:102A2000254972681206120F895CC8402349086064
:102A3000002000F0FEF90020FEBD00008913000018
:102A4000FFFFFFEF30B589B004A800BF1FA110221F
:102A5000FEF73CFD684600BF20A11022FEF736FDC0
:102A600017490C6817480C222240082A0BD10F2264
:102A700004ABA50C15405D5D6B46896A0A40995C04
:102A8000FEF75BFF684309B030BD0C480068704733
:102A90000A4800680C490A4A12685205520F895CBC
:102AA000C8407047FFFFFFFEFF7FC2FF00200240CB
:102AB00000100240FFF8FFFF4C3F0008000000201C
:102AC0000410024000127A00D040000802030405FE
:102AD000060708090A0B0C0D0E0F10100102030463
:102AE00005060708090A0B0C0D0E0F107047FEE7CC
:102AF0007047FEE77047704780B500F0ADF900F011
:102B0000A7F801BD2248017801290AD14188491C52
:102B1000418089B2322904DB01211E4A1170002153
:102B20000170704780B51C48FFF7F8F901BD80B50A
:102B30001A48FFF7F3F901BD70B50122144B0024C8
:102B40001749154DA84209D1CD7F1E2D06DA8E7F7B
:102B50004E55CD7F6D1CCD775C801A700F4DA8420D
:102B600009D1CD7F1E2D06DA8E7F4E55CD7F6D1C8F
:102B7000CD775C801A701E31FFF784F970BD01B506
:102B8000084B012269460448FFF716F9009802BD78
:102B9000880900205909002044070020B4070020BC
:102BA00038090020FFFF000080B5042000F027F95D
:102BB00001BDFEE710B5C20018231340FF249C405E
:102BC000E2438907090E9940002804D51C4B0007F1
:102BD000000F083800E01B4B8008800018180368BD
:102BE0001A401143016010BD80B5FFF7E3FF01BD3E
:102BF0000121C006C00E814013480160704710B526
:102C0000401E80214904884201D3012010BD0F4C91
:102C1000606003210020C043FFF7CCFF0020A060CC
:102C20000721216010BD09490428086803D1042246
:102C300002430A6070470422904308607047000016
:102C40001CED00E000E400E000E100E010E000E046
:102C500080B5FFF757FF01BDFFB5002329E005252B
:102C60006F46BF78BD403543039E3560694D2E6881
:102C7000E5432E404F68FF0300D52643654F3E6075
:102C80007E682E404F68BF0300D52643614F7E60AB
:102C9000BE682E404F68FF0200D526435D4FBE60E0
:102CA000FE6835404E68B60201D52C432500FD6014
:102CB0005B1C0D682C00DC4000D193E001249C409B
:102CC00002942C40F4D09D006E4675704D68022D24
:102CD00001D0122D1AD1DD08AD0045192E6A0196DA
:102CE0006E4677781C263E406F463E70019FBC467C
:102CF0006E4637780F26BE406746B743BC460F691D
:102D00006E463678B740664637432F6206685D00E8
:102D10006F463D7003253F78BD40EF4301973D4628
:102D200035400E79B607B60F6F463F78BE402E434A
:102D300006604D68012D05D0022D03D0112D01D064
:102D4000122D11D18668019D3540CE686F463F78BF
:102D5000BE402E4386604568029EB5434E68F70626
:102D6000FF0F9F402F434760C668019D35408E6826
:102D70006F463F78BE402E43C6604D68ED0097D544
:102D8000254D2D6801262E43234D2E602D68EE071C
:102D9000F60F0196019D214D9E08B600AD190395D1
:102DA0002E686D466F780C253D406F46BD706D46B0
:102DB000AF780F25BD40AE439025ED05A84201D167
:102DC00000254DE7164DA84201D1012548E7154DD4
:102DD000A84201D1022543E7134DA84200D03EE7A7
:102DE00003253DE7FFBD0069084000D00120C0B2C7
:102DF0007047002A01D081617047816270470B4A99
:102E00001368034000D1704780B5106000F010F8DF
:102E100001BD0000000401401810024008000140FC
:102E20000004004800080048000C00481404014059
:102E3000704710B50400FFF728FEFA218900FEF75D
:102E40007CFDFFF7DCFE002221000020C043FFF7DD
:102E5000CBFE002010BDFEE702480168491C01605E
:102E6000704700BF5C090020F0B585B007000E0078
:102E700000F055FB00240194124D029501200390AF
:102E80000094694601A800F0BBFB07E0A0003A5897
:102E900000234119022000F00DFB641CB442F5DB55
:102EA00000F044FB05B0F0BD10B5002206E0930031
:102EB000044C1B191B6894000351521C8A42F6DB18
:102EC00010BD000000F00108F0B591B000F006FC64
:102ED00000F0DEF980208002CE4C216801432160A1
:102EE00021680840009000988020C00221680143BA
:102EF000216021680140009100992168014321600F
:102F00002168084000900098042001900026029655
:102F1000039601A9C048FFF79FFE082001900120F9
:102F20000290039601A9BC48FFF796FEBB4FBC4830
:102F30007860E1256D02BD60FE603E617E610C201F
:102F4000B861FE613E627E62BE62381DFEF700FF20
:102F5000002800D0FEE7B3487867BD67FE67802091
:102F60003E503D0084352E600C206860AE60EE60FF
:102F70002E616E6138007430FEF7EAFE002800D042
:102F8000FEE700F023FA00F0BBF9A7482866FA2014
:102F9000C0016866AE66A548E8668020A86738006C
:102FA000E43000F0ABFB002800D0FEE71020A16861
:102FB0000143A160A1680840009000989C48006807
:102FC000016801220A4302609A48006801680122F0
:102FD0000A4302600021964800F0C6FB0C21944889
:102FE00000F0C2FB0021934800F0BEFB0421914891
:102FF00000F0BAFB08218F4800F0B6FB0C218D4889
:1030000000F0B2FB032106A8FFF74EFF0698002848
:1030100001D101200790089B079A069987A000F02C
:1030200055FE089880B2079C4443A4B288A52200AC
:103030002100280000F04AFE7D48006844636420B7
:10304000089989B2441A07984443A4B22200210087
:10305000280000F03BFE764800680464754800686C
:10306000642141638163FA218900C1630022002148
:103070001B20FFF7B9FD1B20FFF7BAFD002200213E
:103080001C20FFF7B1FD1C20FFF7B2FD6A4C0122A6
:1030900021001E31381DFEF7F5FE05E070A000F09E
:1030A00015FEE67721216654922040003D18042148
:1030B0005948FFF798FE012805D13E707E70FFF752
:1030C00047FA286035E07878012818D0082152485E
:1030D000FFF789FE002812D1FFF73AFA2968401A53
:1030E000FA21890088420AD3012208214A48FFF7C1
:1030F00080FE0120387000BF5CA000F0E7FD38784A
:10310000012816D0FFF724FA2968401AAD498842F1
:103110000FD308214048FFF766FE012809D100229D
:1031200008213D48FFF765FE0120787051A000F0AE
:10313000CDFD2120205C0128B6D1002505E0EDB2AF
:10314000615DA1A000F0C2FD6D1CE07FE9B281428B
:10315000F5D30928A2D12078FF289FD16078FF28D5
:103160009CD1A078FF2899D144A000F0AFFDE07871
:10317000002828D144A000F0A9FD2D480068016A6C
:10318000BE4A0A4007D1016ABD4A0A4003D101681C
:10319000012291430160274909680A6AB74B13402D
:1031A00007D10A6AB64B134003D10A6801239A4338
:1031B0000A60022242624A620E64466306644E63FB
:1031C0008E63CE6316E01B480068217901641849BC
:1031D0000968627923795A434A6364226379D21A6F
:1031E00023795A4392B20A64A1794163E1798163F8
:1031F000217AC163E0780690227907926379089377
:10320000069900BFA4A000F061FD032106A8FFF706
:103210002BFE46E71410024000040048400700203F
:1032200000380140004400400010004050C300003E
:10323000B8080020F808002038090020666C617387
:10324000683A2025782020257820202578200A003B
:1032500074656D703A202578202564200A000000EE
:103260000ABDD3CAD5CAA7B0DC0A0000BFAABBFA00
:103270000A000000B9D8BBFA0A0000000ABDD3CA90
:10328000D5B3C9B9A60A0000BFAAB9D80A00000080
:1032900070B596B00226099601240C9410200D906A
:1032A0001196C0021290000113900025149509A8F0
:1032B000FFF77CF9002800D0FEE707200090019678
:1032C0000295039501216846FFF724FB002800D0F2
:1032D000FEE70494069504A800F00AFD002800D03B
:1032E000FEE7FA20C001FFF78AFC0420FFF79BFCF1
:1032F000002200210020C043FFF776FC16B070BD0D
:1033000070B594B05F4D604828601020686000245C
:10331000AC605E48E8602C616C618020A861280088
:1033200000F0ECF9002800D0FEE78020400110906A
:1033300010A9280000F0F0FA002800D0FEE72800CD
:1033400000F0EBF9002800D0FEE7280000F0FDF9BE
:10335000002800D0FEE7009401946946280000F0A0
:103360004FFD002800D0FEE76026029603940494E7
:103370000594069407940894002202A9280000F0FE
:1033800035FA002800D0FEE702960C2202A9280098
:1033900000F054FA002800D0FEE709940A940B9438
:1033A0000C940D94802080010E900F9409A92800A0
:1033B00000F048FD002800D0FEE72800FFF763F882
:1033C00014B070BDB80B00002578200030B58DB06A
:1033D0002F4C30482060A02060600025A560FF20B1
:1033E000E06025618020A061200000F087F90028BE
:1033F00000D0FEE780204001099009A9200000F0DC
:103400008BFA002800D0FEE7200000F09EF900288B
:1034100000D0FEE7009501956946200000F0F0FC21
:10342000002800D0FEE760200290039504950695E1
:10343000002202A9200000F001FA002800D0FEE7D7
:10344000042202A9200000F0F9F9002800D0FEE7CC
:10345000082202A9200000F0F1F9002800D0FEE7C0
:103460000C2202A9200000F0E9F9002800D0FEE7B4
:103470002000FFF708F80DB030BD0000111100006A
:1034800044040000B8080020002C01401027000070
:10349000F808002000040040666C61736877726968
:1034A00074653A2025782020257820202578200A68
:1034B00000000000F2B50CB404003C4E307E012840
:1034C00001D10220FEBD01253576464800F046F8C0
:1034D0000027010021D1012C04D0022C01D10225AA
:1034E00000E00425002400E0641CAC4215DA6846C4
:1034F00003C8220100F0E4FC81B202986200801847
:1035000000F021F8374800F029F83749096801220E
:103510009143354A11600100E6D03776FEBD34484C
:10352000C168090600D508E0012070472E480168EF
:1035300080220A430260002070472E4901602E4914
:1035400001600020704710B50022184BDA61264A4E
:10355000136801241C431460018010BD70B5050080
:10356000FEF7F6FF0600214C2068C0070CD50020AE
:10357000C0438542F8D0002D04D0FEF7E9FF801B40
:103580008542F1D2032070BD20202168014000D087
:1035900020602068C00602D42068400703D500F0F0
:1035A00007F8012070BD002070BD000060090020F8
:1035B00030B50022114810230C490C681C4004D07F
:1035C000C26902241443C461102204230C681C4005
:1035D00006D0C46901252543C561100004220243B9
:1035E0000A6030BD50C30000102002400C20024091
:1035F0000420024023016745AB89EFCD600900201C
:10360000F3B581B001200124284D297E012901D183
:103610000220FEBD2876264F0198006801280FD1B0
:103620002448FFF79BFF00282FD100F032F82148F3
:10363000FFF794FF0400386804218843386024E0D1
:103640001C48FFF78BFF00281FD10020C0430299C0
:1036500008600198466801E0880236180198806881
:10366000C00201994968401886420ED2300000F02D
:1036700023F81048FFF772FF0400386802218843DE
:1036800038602000E8D002980660002028762000EC
:10369000FEBD00200549C8610548016804220A43AF
:1036A0000260016840220A430260704760090020FE
:1036B0001020024050C300000021074AD161054993
:1036C0000A68022313430B604860086840220243E3
:1036D0000A607047102002406009002080B506484B
:1036E000016810220A4302600020FFF7A2FBFEF7E8
:1036F0008BFE002002BD00000020024038B504000F
:1037000001D1012032BD25003C356878002803D165
:1037100028702000FEF79EFE0DE038B5040001D1B0
:10372000012032BD25003C356878002803D128707F
:10373000200000F0D4FB02206870211D206800F0FA
:1037400056F901206870002032BD38B5040001D15F
:10375000012032BD25003C356878002803D128704F
:10376000200000F0BDFBE6E710B504001AE00400FD
:10377000080006D0042908D008290AD00C290CD04A
:1037800010E02068C26802230AE02068C2680423AF
:1037900006E02068C268082302E02068C26810239F
:1037A0001343C3600122206800F084FA20680B49AB
:1037B000884208D00A49884205D00A49884202D086
:1037C0000949884204D1416C802212020A434264B2
:1037D000016801220A430260002010BD002C014054
:1037E00000400140004401400048014038B5040059
:1037F0003C342378012B01D1022032BD01252570F4
:1038000002236370002A06D0042A08D0082A0AD0AE
:103810000C2A0CD00EE0006800F024F90AE00068E1
:1038200000F05AF906E0006800F08AF902E000684A
:1038300000F0B8F965700020207032BDF8B50400C2
:103840000D003C20205C012801D10220F2BD0120A6
:103850003C216054022021003C3148702D4F8602EB
:10386000002A06D0042A16D0082A27D00C2A37D0DE
:1038700048E02900206800F0F5F8206881690822F6
:103880000A43826120688169042291438161206832
:1038900081692A690FE02900206800F01DF920687D
:1038A00081690E438661206881690F4087612068C5
:1038B00081692A6912020A43826123E02900206893
:1038C00000F03EF92068C16908220A43C2612068FD
:1038D000C16904229143C1612068C1692A690FE06E
:1038E0002900206800F05EF92068C1690E43C661B6
:1038F0002068C1690F40C7612068C1692A69120246
:103900000A43C261012021003C31487000203C2163
:103910006054F2BDFFFBFFFF70B5040026003C368B
:103920003078012801D1022070BD012535700220B8
:103930007070206882684A4B1340836008680028D2
:1039400045D0102845D0202845D0302845D04028E3
:1039500036D0502826D060282BD070280CD02A03CF
:10396000904203D05200904210D03AE02068816823
:1039700007229143816034E0CB684A6889682068F7
:1039800000F073F920688168772208E0CB684A6804
:103990008968206800F069F920688168AA030A43F1
:1039A00082601EE0CA684968206800F033F950213F
:1039B00014E0CA684968206800F03DF960210DE014
:1039C000CA684968206800F025F9402106E0002116
:1039D00004E0102102E0202100E03021206800F006
:1039E0003CF900E0000075700020307070BDF0B54B
:1039F0000668814A814B824C824DA84201D0A04288
:103A000006D17027BE4337004E683E43A8420BD014
:103A1000A04209D07C4CA04206D0984204D09042EB
:103A200002D07B4CA04203D1784C3440CE68264370
:103A30008024A6434C69344304608C68C4620C68DB
:103A40008462A84206D0984204D0904202D0704AC4
:103A5000904201D10969016301214161F0BD00007B
:103A60008800FFFFF8B5026A01239A430262036AE5
:103A7000426884697325AC430D6825430095022490
:103A8000A3438C681C435C4B5C4D5E4EB04206D039
:103A9000A84204D0984202D05D4FB8420CD108270A
:103AA000BC432700CC683C430427BC43B04206D04B
:103AB000A84204D0984202D0554B984205D1704B91
:103AC00013404D691D438A692A434260009A82610E
:103AD000496841630462F1BD70B5026A10239A43DC
:103AE0000262026A43688469664D25400C682402BC
:103AF0002C432025AA438D682D011543414A90424D
:103B000008D1802295432E00CA6815013543402212
:103B1000954308E0394A904205D0374A904202D096
:103B20003B4A904206D1584A1A404B698E691E435F
:103B3000B30013434360846149688163056270BDCB
:103B400070B5026A514B13400362046A4268C5694A
:103B500073239D430B682B434D4D25408C682402F5
:103B60002C43284DA84207D14A4D2540CC68260257
:103B70002E43494C344008E0204DA84205D01E4D4C
:103B8000A84202D0224DA84206D1444D15404A69B0
:103B90008E69164332012A434260C3614968C1639A
:103BA000046270BD30B5026A3D4B13400362036A84
:103BB0004268C469334D25400C6824022C43394DBA
:103BC0001D408B681B032B430E4DA84208D00B4DA4
:103BD000A84205D0084DA84202D00D4DA84204D1FC
:103BE000314D15404A6992012A434260C4614968D7
:103BF0000164036230BD0000004401400040014008
:103C000000040040002C014000200040FFFCFFFFAA
:103C10000048014030B5036A046A0125AC430462E0
:103C20008469F025AC431201224382610A22934346
:103C30001943016230BD30B5036A1024A343036207
:103C40008469036A194D254012032A438261A02228
:103C5000934309011943016230BD826870239A437E
:103C60000A43072111438160704730B58468104DC5
:103C7000254029430A4319021143816030BD0000E9
:103C8000FFFCFFFFFF8CFFFFFFF3FFFFFFFEFFFFC7
:103C9000FFFDFFFFFFF7FFFFFFFBFFFFFFCFFFFF72
:103CA000FFEFFFFFFFDFFFFFFFBFFFFFFF0FFFFF84
:103CB000FF00FFFF10B5036A01248C40A343036299
:103CC000036A8A401A43026210BDFEE70EB400B5D3
:103CD00082B003A900916B46020001210348784499
:103CE0000A30FCF7EDF9029906B00847A10300007D
:103CF000F0B583B0040001273B4D2068C00356D5C2
:103D00000020009038072968014007D12968014345
:103D1000296029680840019001980097334800689D
:103D2000C00512D431480068A90D01432F48016035
:103D3000FEF70EFC06002D480068C00505D4FEF70E
:103D400007FC801B6528F6D322E0C0218900686843
:103D500008401FD06268114088421BD0696824481F
:103D6000084069683A040A436A606968214A0A405F
:103D70006A60686038400DD0FEF7EAFB06006868AC
:103D8000800707D4FEF7E4FB801B1B498842F6D36B
:103D90000320FEBD686816490140606808436860FA
:103DA0000098002803D02868144901402960206841
:103DB000074005D0686903218843A1680143696110
:103DC0002078800605D5686910218843E1680143A1
:103DD00069612068800305D568698021884321696D
:103DE000014369610020FEBD1C10024000700040CC
:103DF000FFFCFFFFFFFFFEFF89130000FFFFFFEF47
:103E000070B502003C321378012B01D1022070BD45
:103E10000123137002245470046865687026B5434A
:103E20006560046865680E682E4366600468A5686E
:103E30008026B543A5600068846849682143816095
:103E40003AE0000070B502003C321378012B01D13A
:103E5000022070BD01231370022454708C69CD6858
:103E60000C4E2E408D6835430B4E2E404D68354329
:103E70000A4E2E400D683543094E2E400D693543DC
:103E8000084E2E4049693143074D0D4025430749EF
:103E90000EE000BFFFFCFFFFFFFBFFFFFFF7FFFF90
:103EA000FFEFFFFFFFDFFFFFFFBFFFFFFF7FFFFF12
:103EB00029400C430068446453700020107070BDAA
:103EC000D2B2203A03D30800D040002170472032FC
:103ED000D141D04048409140D14048407047704760
:103EE0007047FEE71348016801220A4302604168F7
:103EF000114A0A4042600168104A0A4002600168A3
:103F00000F4A0A40026041680E4A0A404260C16A94
:103F10000F229143C162016B0B4A0A400263016B9D
:103F200080220A430263416B0122914341630021D5
:103F300081607047001002400CB8FF08FFFFF6FEDA
:103F4000FFFFFBFFFFFFC0FF6CFEFFFF0000000054
:103F500000000000010203040607080970B40121F3
:103F6000002213E00468001D0C4202D04D466D1E75
:103F700064192260241D1B1F042BFAD225009E0702
:103F800001D52280AD1C0B4000D02A700368001DB3
:103F9000002BE7D170BC704730B501684118446808
:103FA00062088A188368E40701D54C461B199142C0
:103FB00001D10C3030BD0C7864B2491C0D78491C1D
:103FC0001D705B1C002C02D5641CF9D1EFE7641E48
:103FD000F4D5ECE70000000000000000686A6C7493
:103FE0007A4C000000000000000000006E616E00CE
:103FF0004E414E00696E6600494E460010B50749B5
:1040000079441831064C7C44163404E0081D0A68D3
:10401000891888470100A142F8D110BD08000000AE
:104020002400000039FFFFFF50020000400700207D
:104030000000000065FFFFFFB80000006200000004
:104040000000002000F00BF8002801D0FFF7D6FF99
:10405000002000BF00BFFEF737FF00F002F801208C
:10406000704780B500F002F801BDFEE7074638460C
:1040700000F002F8FBE7FEE780B500BF00BF024A90
:1040800011001820ABBEFBE72600020038B5050082
:104090000C00200000F006F8A04200D00025280007
:1040A00032BDFEE780B50249FEF769FD02BD00BFE3
:1040B000040000200148804701480047E53E000811
:1040C000C540000800BF00BF00BF00BFFFF7BAFF38
:1040D0000000000001020304FEE7FEE7FEE7FEE742
:1040E000FEE7FEE7FEE7FEE7FEE7FEE7FEE7FEE7A8
:1040F0002300127A000204010168080020B80800B9
:10410000206808002068080020680800204100009E
:104110002028000020C400F8FFDC00FAFF8100D155
:01412000009E
:04000005080040C5EA
:00000001FF
